:0400000007EF00F016
:0A000800528201ED10F07AEF10F0C3
:1008000000A0486E0509024300020100C03209043D
:10081000000001020201000524001001042402026C
:1008200005240600010524010001070581030A00D3
:100830000209040100020A0000000705020240004C
:1008400000070582024000002603440069006C0096
:100850007300680061006E002000520020004A0012
:100860006100790061006B006F0064007900200373
:1008700054006500730074002000550053004200CE
:1008800020004400650076006900630065001201E5
:10089000000202000020D8040A0000010102000149
:0508A00004030904003F
:1008A60009EC12F092909292929492969298929A61
:1008B600000E936E9490956896909692969454EC4A
:1008C60010F0C5EC11F00009D8B445D1AE0EE86FB2
:1008D600200EE96FF2EC0EF001010B6F3E0E0001E7
:1008E6008E6FD9D0899026D1898024D1899222D140
:1008F600898220D18B901ED18B801CD18D901AD1EC
:100906008D8018D18D9216D18D8214D18D9412D1ED
:100916008D8410D189960ED189860CD189940AD1FD
:10092600898408D1899806D1898804D1899A02D107
:10093600898A00D154EC10F0FDD0E0EC10F0FAD02A
:100946000B0E01010B6574D0B1C0DFF00001E06B46
:10095600100EE26F000EE16FA0EC11F0B051400DE9
:10096600F3CFF3F0F4CFF4F0DF51F327E051F423A3
:10097600AF51F3250101006F0001000EF4210101C2
:10098600016FB2C002F1036BB5C0DFF00001E06B8E
:10099600100EE26F000EE16FA0EC11F0B451400DA5
:1009A600F3CFF3F0F4CFF4F0DF51F327E051F42363
:1009B600B351F3250101046F0001000EF42101017A
:1009C600056FB8C0DFF00001E06B100EE26F000E9D
:1009D600E16FA0EC11F0B751400DF3CFF3F0F4CF77
:1009E600F4F0DF51F327E051F423B651F32501016A
:1009F600066F0001000EF4210101076FB9C008F16E
:100A0600096B00C1E9F001C1EAF002C1EBF003C1D4
:100A1600ECF004C1EDF005C1EEF006C1EFF007C140
:100A2600F0F008C1F1F009C1F2F035EC0FF082D018
:100A36003F0E00012ED0020E01010B65F9D7000111
:100A4600B051F46FF36BAF51F325FB6F000EF42139
:100A5600FC6F70D0020E01010B65EAD70001B051A0
:100A6600F46FF36BAF51F325F96F000EF421FA6FB3
:100A760061D0010E01010B6503D0AFC00AF102D0AF
:100A8600000E0A6F0AC1E2F00001E36BB3EC11F04D
:100A9600E2518E6F4FD0AE51610AD8B423D7030A04
:100AA600D8B422D7010AD8B421D7070AD8B420D798
:100AB600010AD8B41FD7030AD8B41ED7010AD8B47E
:100AC6001DD70F0AD8B41CD7010AD8B41BD7030AFE
:100AD600D8B41AD7010AD8B419D7070AD8B418D780
:100AE600010AD8B417D7030AD8B416D7010AD8B45E
:100AF60015D71F0AD8B414D7010AD8B413D7030AD6
:100B0600D8B412D7010AD8B411D7070AD8B410D767
:100B1600010AD8B40FD7030AD8B40FD7010AD8B43C
:100B26000FD70F0AD8B487D7010AD8B493D7030AC8
:100B3600D8B49FD701010B51D8B40DD00D0E0001CA
:100B46008F6F0A0E906F000E916F8E0EDF6F040E80
:100B5600E06FE6EC11F0F4EC08F0B3D604013205D0
:100B6600D8A40ED030511F0B0009D8A409D00C8E82
:100B7600030E3119D8A402D0010E01D0000E246E46
:100B86003251D8A4120030511F0B020AD8A4120009
:100B960034510F0B0009D8B4120034510F0B3E6EBE
:100BA600030E3E601200200E2718D8A412000C8EE9
:100BB60034BF11D034510F0B020DF3506A0FD96EAA
:100BC600DA6ADECF43F0DDCF44F034510F0B3E6ED0
:100BD6003E507E0F10D034510F0B020DF3500F0F05
:100BE600D96EDA6ADECF43F0DDCF44F034510F0B15
:100BF6003E6E3E50810FD96EDA6ADF50426E42B0C9
:100C060006D0FB0E4314436EFF0E441404D0040EAC
:100C16004310436E4450446E34BF06D034510F0B1C
:100C2600020DF3506A0F05D034510F0B020DF3502D
:100C36000F0FD96EDA6A43C0DEFF44C0DDFF030E34
:100C46003119D8A424D043C0D9FF44C0DAFFDFAE9F
:100C560011D034BF06D034510F0B3E6E3E507E0F7E
:100C660005D034510F0B3E6E3E50810FD96EDA6AB5
:100C76000001DF8243C0D9FF44C0DAFF000EDB84E7
:100C860043C0D9FF44C0DAFF000EDB8E1200040E0B
:100C96004318436E4450446E43C0D9FF44C0DAFF44
:100CA600DFAE1BD043C0D9FF44C0DAFF7F0EDF168C
:100CB60043C0D9FF44C0DAFF000EDB8C000E376E4E
:100CC600050E366E43C038F044C039F0000E3B6E58
:100CD600020E3A6EA5EC0FF006D043C0D9FF44C011
:100CE600DAFF000EDB8C040E4318436E4450446E4C
:100CF60042B206D043C0D9FF44C0DAFFDFAE27D0E8
:100D0600040134BF06D034510F0B3E6E3E507E0FA9
:100D160005D034510F0B3E6E3E50810FD96EDA6A04
:100D26000001DF9243C0D9FF44C0DAFF3B0EDF1655
:100D3600000E376E050E366E43C038F044C039F0EB
:100D4600000E3B6E020E3A6EA5EC0FF006D043C0C5
:100D5600D9FF44C0DAFF3B0EDF16040134510F0BF6
:100D66003E6E3F6A700E3E24406E0F0E3F20416E6F
:100D760040C0D9FF41C0DAFFFE0EDF161200A09A6E
:100D8600000E6A6E000E686E000E706E710E000127
:100D9600DF6F0F0EE06F000EE26F000EE16F000EC8
:100DA600E46F020EE36F4BEC11F0160E6F6E9F0EA2
:100DB6006B6E7B0E696E000EE76FE751040D000E39
:100DC600F324D96E040EF420DA6EDE6ADE6ADE6A79
:100DD600DD6AE72B0B0EE765F0D76D8C000E6E6EA5
:100DE6006D986D9C6896000E0C6E000E046E000EDB
:100DF600066E000E056E68B6F5D7010E1E6E010E64
:100E06001D6E000E1C6E000E00018D6F000E236E0F
:100E1600000EE76FE751020DF3500F0FD96EDA6A35
:100E2600000EDE6E000EDD6EE751020DF3506A0F06
:100E3600D96EDA6A000EDE6E000EDD6EE751810FA6
:100E4600D96EDA6A000EDF6EE7517E0FD96EDA6A66
:100E5600000EDF6EE72B020EE765DCD7080E0F6E7D
:100E6600040E106E160E706E040E0401036F300E23
:100E7600026F200E016F040E006F008F000E296EA8
:100E8600000E0001746F000E756F000E766F000E77
:100E9600776F000E8C6F000E276E1200A09A000E60
:100EA6006A6E000E686E000E706E710E2A6E0F0E60
:100EB6002B6E000E2D6E000E2C6E000E2F6E020E87
:100EC6002E6E77EC11F0160E6F6E9F0E6B6E7B0E0C
:100ED600696E000E326E3250040D000EF324D96E88
:100EE600040EF420DA6EDE6ADE6ADE6ADD6A322A13
:100EF6000B0E3264F0D76D8C000E6E6E6D986D9C85
:100F06006896000E0C6E000E046E000E066E000E45
:100F1600056E68B6F5D7010E1E6E010E1D6E000E2B
:100F26001C6E000E00018D6F000E236E000E326ED9
:100F36003250020DF3500F0FD96EDA6A000EDE6ED4
:100F4600000EDD6E3250020DF3506A0FD96EDA6A6A
:100F5600000EDE6E000EDD6E3250810FD96EDA6A3B
:100F6600000EDF6E32507E0FD96EDA6A000EDF6E2B
:100F7600322A020E3264DCD7080E0F6E040E106E93
:100F8600160E706E040E0401036F300E026F200EF3
:100F9600016F040E006F008F000E296E000E000117
:100FA600746F000E756F000E766F000E776F000E71
:100FB6008C6F000E276E12002704D8B46DBA06D0C7
:100FC600000E686E69806988020E276E68B469A48F
:100FD60003D068941AEC11F06DA202D0A19A120007
:100FE60068B069A006D051EC07F0A08A040E276EFF
:100FF600689068B869A802D034EC11F068AC1AD0D1
:1010060069AC0ED0000E376E730E366E000E386E5B
:10101600000E396E000E3B6E010E3A6EA5EC0FF017
:10102600689CD6EC11F02050D8A420062050D8B4E5
:101036007CEC0CF068BA69AA02D0BFEC10F068B27A
:1010460069A20FD07F0E376E3668000E386E000E1E
:10105600396E000E3B6E010E3A6EA5EC0FF0000ED7
:101066006A6E040E276002D0A19A120069A62ED0DD
:10107600000E476E68A62AD06CCF28F02830E832DA
:10108600E8320F0B226E689628B403D022507E0FEA
:1010960002D02250810FD96EDA6A0001DF70225029
:1010A600D8A403D0D4EC0DF00DD0000E376E720E1E
:1010B600366E280E386E396A000E3B6E000E3A6E9A
:1010C600A5EC0FF0472A030E4764D4D7A19A120065
:1010D600800E04013019D8A41200C00E0C6E76D012
:1010E6008E0E096E0950D8A4080E0A6E000E0E6EFA
:1010F600120E0D6E12003251D8A43BD03251040F9D
:101106002A6E2AC0F6FF080EF76E0900F5CF09F021
:10111600080E0A6E020E09242A6E000E0A202B6E95
:101126002AC0F6FF2BC0F7FFF86A070EF76403D054
:101136000800F55005D0F6CFE1FFF7CFE2FFE75004
:101146000D6E030E09242A6E000E0A202B6E2AC08D
:10115600F6FF2BC0F7FFF86A070EF76403D0080006
:10116600F55005D0F6CFE1FFF7CFE2FFE7500E6E60
:101176001200000E0C6E1200030E326121D03251A5
:10118600010F2A6E2AC0F6FF080EF76E0900F5CF8A
:1011960009F0080E0A6E09C0F6FF0AC0F7FFF86AE2
:1011A600070EF76403D00800F55005D0F6CFE1FF2F
:1011B600F7CFE2FFE7502A6E2A500D6E0E6A120034
:1011C600000E0C6E1200000E0C6E12003351010A56
:1011D600D8B486D7030AD8B48ED7010AD8B4CCD7E8
:1011E600F2D7A09A000184518511D8B408D084C0E2
:1011F600D9FF85C0DAFFDFAE02D0A08A1200030E47
:101206001A18D8A402D0000E1A6E1A50D8A402D00A
:10121600A08A1200020E1A18D8A412D0010EDF6F8F
:10122600000EE06F000EE16F000EE26F020EFAECA8
:1012360009F0DFC084F0E0C085F0030E1A6E53D0CB
:101246001A04D8A450D0400E196403D0400EE96F9A
:1012560002D019C0E9F0E951195C196E000E786FD9
:10126600050E796FE9C0E8F08B51D8B40ED01ED0C8
:101276007B51D96EDA6A78C0E1FF79C0E2FFDFCF31
:10128600E7FF784B792B7B2BE807E851D8B411D0D0
:10129600EFD77B51D96EDA6A78C0E1FF79C0E2FFF9
:1012A600DFCFE7FF784B792B7B2BE807E851D8A4F3
:1012B600F0D71950D8A408D0400EE919D8A402D006
:1012C600020E01D0030E1A6E010EDF6F000EE06FE4
:1012D600050EE16FE9C0E2F0020EFAEC09F0DFC09C
:1012E60084F0E0C085F0A08A120020EE01F01750CD
:1012F600D9261850DA22DF502B6E2B50055C000ED3
:101306000658D8A005C02BF02B50055E000E065AD5
:10131600000E2A6E0DD0500E2A24D96EDA6A040EFB
:10132600DA220150E16EE26ADFCFE7FF012A2A2ABC
:101336002B502A5CD8A0EFD705500610D8B432D06F
:1013460020EE01F01550D9261650DA22200EDF6E57
:1013560020EE02F01550D9261650DA22500EDE6E17
:10136600040EDD6E17C0D9FF18C0DAFFDFBC0DD042
:1013760015C0D9FF16C0DAFF480EDF6E15C0D9FFBB
:1013860016C0DAFF000EDB8E120015C0D9FF16C09C
:10139600DAFF080EDF6E15C0D9FF16C0DAFF000EA1
:1013A600DB8E120020EE01F01550D9261650DA22F7
:1013B600200EDF6E20EE02F01550D9261650DA22E6
:1013C600300EDE6E040EDD6E15C0D9FF16C0DAFFD4
:1013D600040EDF6E15C0D9FF16C0DAFF000EDB8ED5
:1013E600049E1F50D8A412007CEC0CF01200E56F8E
:1013F6000001DF51D8B405D0E551020DF3500F0FAF
:1014060004D0E551020DF3506A0FD96EDA6ADECFC9
:10141600E6F0DDCFE7F0E651E711D8A405D0000EDF
:10142600DF6F000EE06F120020EE02F0E651D926C3
:10143600E751DA22E0C0DEFFE1C0DDFF20EE01F079
:10144600E651D926E751DA22E2C0DFFFE6C0D9FF2E
:10145600E7C0DAFF400EDF16E6C0D9FFE7C0DAFFC5
:10146600000EDB86E6C0D9FFE7C0DAFF000EDB8E92
:10147600DF51D8B413D0E551020DF3500F0FD96EDA
:10148600DA6ADECFE3F0DDCFE4F0040EE31B000EF4
:10149600E41BE551020DF3500F0F12D0E551020D7A
:1014A600F3506A0FD96EDA6ADECFE3F0DDCFE4F0EF
:1014B600040EE31B000EE41BE551020DF3506A0F08
:1014C600D96EDA6AE3C0DEFFE4C0DDFFE6C0DFF016
:1014D600E7C0E0F01200306E2A50D8B405D0305084
:1014E600020DF3500F0F04D03050020DF3506A0F67
:1014F600D96EDA6ADECF31F0DDCF32F031503210FC
:10150600D8A405D0000E2A6E000E2B6E120020EE17
:1015160002F03150D9263250DA222BC0DEFF2CC021
:10152600DDFF20EE01F03150D9263250DA222DC0EF
:10153600DFFF31C0D9FF32C0DAFF400EDF1631C0FF
:10154600D9FF32C0DAFF000EDB8631C0D9FF32C0C8
:10155600DAFF000EDB8E2A50D8B413D03050020DBD
:10156600F3500F0FD96EDA6ADECF2EF0DDCF2FF0F3
:10157600040E2E1A000E2F1A3050020DF3500F0FC4
:1015860012D03050020DF3506A0FD96EDA6ADECFF0
:101596002EF0DDCF2FF0040E2E1A000E2F1A30502B
:1015A600020DF3506A0FD96EDA6A2EC0DEFF2FC025
:1015B600DDFF31C02AF032C02BF012006D980CBE50
:1015C60039D004AE0CD0020E256E00018D51D8B470
:1015D60088EC0DF0000E1D6E000E1E6E120020EE41
:1015E60001F01550D9261650DA22200EDF6E20EEB5
:1015F60002F01550D9261650DA22300EDE6E040E91
:10160600DD6E15C0D9FF16C0DAFF0C0EDF6E15C0F1
:10161600D9FF16C0DAFF000EDB8E0FC0D9FF10C04F
:10162600DAFF040EDF6E0FC0D9FF10C0DAFF000E1E
:10163600DB8E1200040130AF10D0010E256E1C5057
:10164600D8B488EC0DF0000E1D6E000E1E6E1F50F5
:10165600D8A412007CEC0CF01200020E256E20EECF
:1016660001F01550D9261650DA22200EDF6E20EE34
:1016760002F01550D9261650DA22300EDE6E040E10
:10168600DD6E15C0D9FF16C0DAFF040EDF6E15C079
:10169600D9FF16C0DAFF000EDB8ED5D7200E2A6ED4
:1016A6000E5010E1200E0D5CD8B00CD00DC02AF003
:1016B6002650D8A402D0010E04D02604D8A402D005
:1016C600020E266E2A500D5E000E0E5A20EE01F016
:1016D6000F50D9261050DA222AC0DFFF500E000123
:1016E600886F040E896F0CA01CD03AD009C0F6FF93
:1016F6000AC0F7FFF86A88C0D9FF89C0DAFF070E6B
:10170600F76403D00800F55005D0F6CFE1FFF7CF18
:10171600E2FFE750DF6E094A0A2A0001884B892B4F
:101726002A062A50D8B41200E1D709C0F6FF0AC02B
:10173600F7FFF86A88C0D9FF89C0DAFF070EF76499
:1017460003D00800F55005D0F6CFE1FFF7CFE2FF52
:10175600E750DF6E094A0A2A0001884B892B2A06C0
:101766002A50D8B41200E1D704013039E832030B0D
:101776000009D8A412003AD00C8E080E276E12006B
:101786006BEC08F012001AEC0CF01200290E096E30
:101796000A6A0C80010E0D6E0C8E120066EC0EF0BD
:1017A6001200B1EC05F012003451DD0F456E45C054
:1017B60009F00A6A0C80010E0D6E0C8E12000C8E5A
:1017C6003451DD0FD96EDA6A32C4DFFF1200000E23
:1017D600376E020E366E000E386E000E396E000E33
:1017E6003B6E000E3A6EA5EC0FF012003151000A66
:1017F600D8B4D4D7010AD8B4D4D7020AD8B4D1D72A
:10180600060AD8B4B9D7030AD8B4BAD7010AD8B4E5
:10181600DED70F0AD8B4BAD7010AD8B4B4D7030AA8
:10182600D8B4C2D7010AD8B4CAD7070A12000C8E98
:10183600710E2A6E0F0E2B6E000E2D6E000E2C6E84
:10184600000E2F6E020E2E6E77EC11F0000E2A6E31
:10185600040E2B6E000E2D6E000E2C6E000E2F6EDB
:10186600300E2E6E77EC11F06D8C000E3E6E3E50F3
:10187600810FD96EDA6A000EDF6E3E507E0FD96E8A
:10188600DA6A000EDF6E3E2A020E3E64F0D7DD0EE7
:101896002A6E2B6A000E2D6E000E2C6E000E2F6E19
:1018A600020E2E6E77EC11F06D9C080E0F6E040E74
:1018B600106E000E176E040E186E17C015F018C0C5
:1018C60016F032C429F02950D8A403D0100E276E82
:1018D6001200000E376E010E366E290E386E396A0A
:1018E600000E3B6E010E3A6EA5EC0FF0200E276E31
:1018F60012001E50D8A41200010E1E6E1D50D8A450
:101906001200010E1D6E020E2518D8A415D020EE69
:1019160001F00F50D9261050DA22000EDF6E0FC0EC
:10192600D9FF10C0DAFF480EDF6E0FC0D9FF10C016
:10193600DAFF000EDB8E12002504D8A41200000E7A
:10194600216E20EE01F01750D9261850DA22200E0B
:10195600DF6E20EE02F01750D9261850DA22300E2C
:10196600DE6E040EDD6E17C0D9FF18C0DAFF040E56
:10197600DF6E17C0D9FF18C0DAFF000EDB8E010E2E
:10198600216E20EE01F01550D9261650DA22200ECF
:10199600DF6E20EE02F01550D9261650DA22300EF0
:1019A600DE6E040EDD6E15C0D9FF16C0DAFF800E9E
:1019B600DF6E12000FC0D9FF10C0DAFF000EDFBCC9
:1019C600010E2B6E040E0F180F6E1050106E080EBF
:1019D6002718D8A40BD0040132517F0B6E6E6E50BF
:1019E600D8B402D0100E01D0040E276E2504D8A458
:1019F6003AD020EE02F00F50D9261050DA22500EBF
:101A0600DE6E040EDD6E51EC0BF0020E2618D8A425
:101A16000DD00FC0D9FF10C0DAFF040EDF6E0FC065
:101A2600D9FF10C0DAFF000EDB8E12002B50D8A4AF
:101A36000DD00FC0D9FF10C0DAFF480EDF6E0FC001
:101A4600D9FF10C0DAFF000EDB8E12000FC0D9FFDF
:101A560010C0DAFF080EDF6E0FC0D9FF10C0DAFF24
:101A6600000EDB8E120004BE049E000E256E1200D0
:101A7600040130511F0BE806D8A412003039E832B1
:101A8600030BE806D8A412003451D8B42DD034057F
:101A9600D8A4120029D0CE0E096E0A6A000E0E6E68
:101AA600080E0D6E0C800C8E1200CE0E096E0A6AA0
:101AB6000C8E120036C405F037C406F0D60E016E41
:101AC600000E076E000E086E048E1200D60E096E0A
:101AD6000A6A000E0E6E070E0D6EC10E0C6E120017
:101AE60032C48AF00C8E12003151000AD8B4D3D712
:101AF600010AD8B4DAD7210AD8B4DCD7010AD8B497
:101B0600E5D7030AD8A41200EBD7000E1C6E000E10
:101B160000018D6F020E2518D8A41FD020EE01F00B
:101B26001550D9261650DA22200EDF6E20EE02F06E
:101B36001550D9261650DA22500EDE6E040EDD6ED2
:101B460015C0D9FF16C0DAFF480EDF6E15C0D9FFE3
:101B560016C0DAFF000EDB8E12000D500401365D52
:101B66000E503759D8B004D036C40DF037C40EF035
:101B760051EC0BF020EE02F00F50D9261050DA226D
:101B8600500EDE6E040EDD6E0FC0D9FF10C0DAFFF8
:101B9600480EDF6E0FC0D9FF10C0DAFF000EDB8ED5
:101BA60012002D0E206E28C046F0FD0E4616D8A453
:101BB6003BD028C046F0D89046323F0E46164650D7
:101BC600040D000EF324176E040EF420186E17C0D1
:101BD60015F018C016F0040E1518156E1650166E70
:101BE60017C0D9FF18C0DAFFDF30E8320F0B0D0A35
:101BF600D8A417D0300E2A6E040E2B6E20EE02F0FB
:101C06001750D9261850DA22DECF2CF0DDCF2DF072
:101C1600000E2F6E080E2E6E9DEC10F01FEC0EF0CF
:101C26001200D3EC0FF012002850FD0B040AD8A4C2
:101C36001200DDEC0CF01200000E266E000E1F6E78
:101C4600000E1C6E000E8D6F000E216E000E256EAE
:101C56000FC0D9FF10C0DAFF7F0EDF16040E0F1873
:101C66000F6E1050106E0FC0D9FF10C0DAFF7F0E36
:101C7600DF16040E0F180F6E1050106E15C0D9FF28
:101C860016C0DAFF7F0EDF16000E0C6E000E0E6E0B
:101C9600000E0D6E000E046E000E066E000E056E32
:101CA600B7EC0BF0000E376E030E366E000E386E74
:101CB600000E396E000E3B6E000E3A6EA5EC0FF06C
:101CC600E1EC0AF01200000E0401506F000E516F95
:101CD6002BD00C8E2404D8A432D0508330D00C8E56
:101CE6002ED00C8E34BF06D034510F0B020DF3509C
:101CF6006A0F05D034510F0B020DF3500F0FD96E3A
:101D0600DA6ADECF2AF0DDCF2BF02AC0D9FF2BC04E
:101D1600DAFFDFAE14D02AC0D9FF2BC0DAFFDFA46A
:101D26000ED0010E506F0BD030511F0B000AD8B4E5
:101D3600D0D7010AD8B4D3D7030AD8B4D2D70CAEB9
:101D46001200500E096E040E0A6E0C80020E0D6E05
:101D560012002F6E000E306E040E316E2A502B6E5E
:101D66002C6AD8902B362C362F502D6E2E6AD89092
:101D76002D362E36D8902D362E362B502D262C501D
:101D86002E22D8902D362E36D8902D362E362D5022
:101D960030262E50312230C0D9FF31C0DAFFDF9E07
:101DA6002A50D8A405D02F50020DF3506A0F04D044
:101DB6002F50020DF3500F0FD96EDA6A30C0DEFFD6
:101DC60031C0DDFF30C0D9FF31C0DAFFDF9C20EE25
:101DD60004F03050D9263150DA22DF8C1200000E82
:101DE6001B6E86518711D8B406D086C0D9FF87C02E
:101DF600DAFFDFBE35D020EE01F08651D9268751B5
:101E0600DA22E951DE5CD8B008D020EE01F0865126
:101E1600D9268751DA22DF50E96F000E1B6E0DD0EE
:101E2600400E1B24D96EDA6A050EDA22E8511B240D
:101E3600E16EE26ADFCFE7FF1B2AE9511B5CD8A0FF
:101E4600EFD7000EDF6F400EE06F050EE16F400E1C
:101E5600E26F020EFAEC09F0DFC086F0E0C087F010
:101E66001B501200E9C0E2F0EAC0E3F0000E0001E8
:101E7600E56F000EE46F2EEC10F0EBC0E2F0ECC064
:101E8600E3F0000EE56F800EE46F2EEC10F0EDC06F
:101E9600E2F0EEC0E3F0000EE56F000EE46F2EEC0C
:101EA60010F0EFC0E2F0F0C0E3F0000EE56F000EB8
:101EB600E46F2EEC10F0F1C0E2F0F2C0E3F0000E99
:101EC600E56F200EE46F2EEC10F089968DEC11F084
:101ED600899A8DEC11F0898A8DEC11F089861200B1
:101EE600000E0001D66F4B0ED76F000ED86F000E96
:101EF600D96F000EDA6F000EDB6F080EDC6F000E76
:101F06001B6E1A0E326E010EFEEC10F01E0E326EB5
:101F1600020EFEEC10F0000E2A6E400E2B6E050E21
:101F26002C6E400E2D6E020E6EEC0AF02AC086F064
:101F36002BC087F0000E0001846F000E856F000E27
:101F46001A6E120006D073EC0FF012003BEC0DF087
:101F5600120036C03CF037C03DF03D50000AD8B400
:101F660004D07F0AD8A4120018D03C50010AD8B475
:101F7600EAD7030AD8B41200010AD8B4E7D7060A8A
:101F8600D8B41200770AD8B41200010AD8B41200E5
:101F9600070AD8B41200010A12003C50FF0A1200C8
:101FA600020E2518D8A403D078EC09F01200000E12
:101FB600256E2150D8A41FD020EE01F01550D92649
:101FC6001650DA22200EDF6E20EE02F01550D926CA
:101FD6001650DA22300EDE6E040EDD6E15C0D9FF05
:101FE60016C0DAFF0C0EDF6E15C0D9FF16C0DAFF79
:101FF600000EDB8E1200000E216E12000600E1CFED
:1020060048F0E2CF49F0D9CF4AF0DACF4BF0F3CF20
:102016004CF0F4CF4DF0F6CF4EF0F7CF4FF0F8CFAF
:1020260050F0F5CF51F000EC12F051C0F5FF50C062
:10203600F8FF4FC0F7FF4EC0F6FF4DC0F4FF4CC08F
:10204600F3FF4BC0DAFF4AC0D9FF49C0E2FF48C0E0
:10205600E1FF52921100E451E215E66FE551E315F6
:10206600E76FE651E711D8B403D0E86BE82B02D04E
:102076000001E86BE83B8950E819EF0BE819896E17
:1020860089948DEC11F089848DEC11F0E535E533FA
:10209600E433E5BF1200E551DEE1E405D8A0120005
:1020A600DAD7898089828B808D808D828D9489860E
:1020B60089848998898A000E0001E46F000EE36F17
:1020C60002D0E34BE42BFB51E35DE451800AE26F5F
:1020D600FC51800AE259D8A0F4D78D908DEC11F00E
:1020E6008D928DEC11F08D828D808B9012002C0ECE
:1020F600F66E240EF76E000EF86E00EEF9F010EE96
:1021060004F00900F5CFEEFFE550E150FAE100EEEC
:1021160060F07F0EEE6AE806FDE100EE01F0290EA2
:10212600EE6AE806FDE152905292000EF86E00014A
:10213600F4EF11F02CC032F02DC033F02AC030F08D
:102146002BC031F010D032C0D9FF33C0DAFFDF50D8
:10215600346E324A332A30C0D9FF31C0DAFF34C078
:10216600DFFF304A312A2E06D8A02F062E28EBE1B3
:102176002F28D8B41200E7D770A01DD017C0D9FFFA
:1021860018C0DAFF800EDE18D8A414D00FC0D9FF0D
:1021960010C0DAFF840EDE18D8A40CD017C0D9FF01
:1021A60018C0DAFF0C0EDF6E17C0D9FF18C0DAFFB1
:1021B600000EDB8E7090689A12008D808D948DECE7
:1021C60011F08D908DEC11F08D928DEC11F08D82C9
:1021D6008DEC11F08D928DEC11F08D828DEC11F05D
:1021E6008D928DEC11F08D828DEC11F08D928DEC2F
:1021F60011F08D821200356E32A405D0000E2A6EC3
:102206003550ACEC0EF032A205D0010E2A6E3550D8
:10221600ACEC0EF0700E3524336E346A0F0E342299
:1022260033C0D9FF34C0DAFF32C0DFFF1200000E20
:10223600236E000E376E740E366E000E386E000E6C
:10224600396E000E3B6E000E3A6EA5EC0FF06D92E5
:10225600699401D0689468B4FDD7000E00018C6FB4
:102266001200698468986D82010E236E000E0001CB
:102276008C6F000E376E750E366E000E386E000EC1
:10228600396E000E3B6E000E3A6EA5EC0FF0120092
:10229600DFC0E5F0E0C0E6F008D0E5C0D9FFE6C053
:1022A600DAFFE1C0DFFFE54BE62BE307D8A0E40742
:1022B600E329F3E1E429D8B41200EFD72750D8A4D4
:1022C6001200000E6D6E000E696E160E6F6E9F0E7A
:1022D6006B6E7B0E696EA28AA08A01D06D866DA692
:1022E600FDD7010E276E12002AC030F02BC031F048
:1022F60008D030C0D9FF31C0DAFF2CC0DFFF304A2A
:10230600312A2E06D8A02F062E28F3E12F28D8B47E
:102316001200EFD7000E0001E16F000EE06F02D051
:10232600E04BE12BF951E05DE151800ADF6FFA5194
:10233600800ADF59D8B01200F3D7DF51E103F3CF9B
:10234600E3F0F4CFE4F0DF51E203F350E427E05189
:10235600E103F350E427E3C0DFF0E4C0E0F012004D
:10236600E2C08CFF89928DEC11F0898289908DEC08
:1023760011F081CFE4F0E56B8980E4C0E2F0E5C0BE
:10238600E3F012001F0E276407D06DB205D0000ED1
:102396000001E06FDF6905D0000E0001E06F000E5E
:1023A600DF6FDF511200010E00017427000E752346
:1023B600762377232350D8A412008C2B8C51D8A4D3
:1023C60012008C691200A09A1A50D8A408D0DFC057
:1023D6007BF0E0C019F0010E8B6F010E1A6EA08A19
:1023E6001200F5C00EF1F6C00FF1F7C00CF1F8C0FF
:1023F6000DF110EC12F007EF00F0F2AC1200A0AAFB
:102406001200A1AA1200DFEC07F01200F28EF28C85
:10241600C2EC06F061EC11F0120013EC12F012009F
:0A24260053EC04F012000A00E80372
:020000040030CA
:0E000000240E391EFF8381FF0FC00FE00F405A
:00000001FF
